{
  "address": "0xFb968263446A6aB89d0B6F462394B8F1d5688718",
  "abi": [
    {
      "inputs": [],
      "stateMutability": "nonpayable",
      "type": "constructor"
    },
    {
      "inputs": [
        {
          "internalType": "string",
          "name": "_epubUrl",
          "type": "string"
        },
        {
          "internalType": "string",
          "name": "_coverUrl",
          "type": "string"
        },
        {
          "internalType": "string",
          "name": "_title",
          "type": "string"
        },
        {
          "internalType": "string",
          "name": "_author",
          "type": "string"
        },
        {
          "internalType": "uint256",
          "name": "_price",
          "type": "uint256"
        }
      ],
      "name": "addBook",
      "outputs": [],
      "stateMutability": "nonpayable",
      "type": "function"
    },
    {
      "inputs": [
        {
          "internalType": "uint256",
          "name": "_index",
          "type": "uint256"
        }
      ],
      "name": "buyBook",
      "outputs": [],
      "stateMutability": "payable",
      "type": "function"
    },
    {
      "inputs": [
        {
          "internalType": "uint256",
          "name": "_index",
          "type": "uint256"
        }
      ],
      "name": "getBookEpub",
      "outputs": [
        {
          "internalType": "string",
          "name": "",
          "type": "string"
        }
      ],
      "stateMutability": "view",
      "type": "function"
    },
    {
      "inputs": [
        {
          "internalType": "uint256",
          "name": "_index",
          "type": "uint256"
        }
      ],
      "name": "getBookPublicDetails",
      "outputs": [
        {
          "internalType": "uint256",
          "name": "",
          "type": "uint256"
        },
        {
          "internalType": "string",
          "name": "",
          "type": "string"
        },
        {
          "internalType": "string",
          "name": "",
          "type": "string"
        },
        {
          "internalType": "string",
          "name": "",
          "type": "string"
        },
        {
          "internalType": "uint256",
          "name": "",
          "type": "uint256"
        },
        {
          "internalType": "uint256",
          "name": "",
          "type": "uint256"
        }
      ],
      "stateMutability": "view",
      "type": "function"
    },
    {
      "inputs": [],
      "name": "getBooksTotal",
      "outputs": [
        {
          "internalType": "uint256",
          "name": "",
          "type": "uint256"
        }
      ],
      "stateMutability": "view",
      "type": "function"
    },
    {
      "inputs": [],
      "name": "getUserBooks",
      "outputs": [
        {
          "internalType": "uint256[]",
          "name": "",
          "type": "uint256[]"
        }
      ],
      "stateMutability": "view",
      "type": "function"
    }
  ],
  "transactionHash": "0xd7c3e07ca7d123d03e8212ff00eb21795a2da19db968be8a6e210ad221cad26b",
  "args": [],
  "numDeployments": 3,
  "solcInputHash": "0fe34d27067fccea813ad360e299333c",
  "bytecode": "0x6080604052600060015573874069fa1eb16d44d622f2e0ca25eea172369bc1600260006101000a81548173ffffffffffffffffffffffffffffffffffffffff021916908373ffffffffffffffffffffffffffffffffffffffff16021790555034801561006a57600080fd5b50336000806101000a81548173ffffffffffffffffffffffffffffffffffffffff021916908373ffffffffffffffffffffffffffffffffffffffff1602179055506114f7806100ba6000396000f3fe6080604052600436106100545760003560e01c80626f0bb3146100595780636cbdb10d1461009b5780636ee26566146100c45780639ed0b575146100e0578063cefedd0f1461011d578063ebac8a0914610148575b600080fd5b34801561006557600080fd5b50610080600480360381019061007b9190610d36565b610173565b60405161009296959493929190611072565b60405180910390f35b3480156100a757600080fd5b506100c260048036038101906100bd9190610c5f565b6103a7565b005b6100de60048036038101906100d99190610d36565b610524565b005b3480156100ec57600080fd5b5061010760048036038101906101029190610d36565b6108c0565b6040516101149190610f75565b60405180910390f35b34801561012957600080fd5b50610132610a62565b60405161013f9190610f53565b60405180910390f35b34801561015457600080fd5b5061015d610af7565b60405161016a9190611057565b60405180910390f35b600060608060606000808660036000898152602001908152602001600020600101600360008a8152602001908152602001600020600201600360008b8152602001908152602001600020600301600360008c815260200190815260200160002060040154600360008d8152602001908152602001600020600501548480546101fa90611253565b80601f016020809104026020016040519081016040528092919081815260200182805461022690611253565b80156102735780601f1061024857610100808354040283529160200191610273565b820191906000526020600020905b81548152906001019060200180831161025657829003601f168201915b5050505050945083805461028690611253565b80601f01602080910402602001604051908101604052809291908181526020018280546102b290611253565b80156102ff5780601f106102d4576101008083540402835291602001916102ff565b820191906000526020600020905b8154815290600101906020018083116102e257829003601f168201915b5050505050935082805461031290611253565b80601f016020809104026020016040519081016040528092919081815260200182805461033e90611253565b801561038b5780601f106103605761010080835404028352916020019161038b565b820191906000526020600020905b81548152906001019060200180831161036e57829003601f168201915b5050505050925095509550955095509550955091939550919395565b60008054906101000a900473ffffffffffffffffffffffffffffffffffffffff1673ffffffffffffffffffffffffffffffffffffffff163373ffffffffffffffffffffffffffffffffffffffff1614610435576040517f08c379a000000000000000000000000000000000000000000000000000000000815260040161042c90610ff7565b60405180910390fd5b60006040518060c00160405280878152602001868152602001858152602001848152602001838152602001828152506003600060015481526020019081526020016000206000820151816000019080519060200190610495929190610b01565b5060208201518160010190805190602001906104b2929190610b01565b5060408201518160020190805190602001906104cf929190610b01565b5060608201518160030190805190602001906104ec929190610b01565b506080820151816004015560a0820151816005015590505060016000815480929190610517906112b6565b9190505550505050505050565b600260009054906101000a900473ffffffffffffffffffffffffffffffffffffffff1673ffffffffffffffffffffffffffffffffffffffff166323b872dd3360008054906101000a900473ffffffffffffffffffffffffffffffffffffffff1660036000868152602001908152602001600020600401546040518463ffffffff1660e01b81526004016105b993929190610f1c565b602060405180830381600087803b1580156105d357600080fd5b505af11580156105e7573d6000803e3d6000fd5b505050506040513d601f19601f8201168201806040525081019061060b9190610c36565b61064a576040517f08c379a000000000000000000000000000000000000000000000000000000000815260040161064190610fb7565b60405180910390fd5b600154811061068e576040517f08c379a000000000000000000000000000000000000000000000000000000000815260040161068590610fd7565b60405180910390fd5b60011515600460003373ffffffffffffffffffffffffffffffffffffffff1673ffffffffffffffffffffffffffffffffffffffff168152602001908152602001600020600083815260200190815260200160002060009054906101000a900460ff1615151415610733576040517f08c379a000000000000000000000000000000000000000000000000000000000815260040161072a90611037565b60405180910390fd5b60008054906101000a900473ffffffffffffffffffffffffffffffffffffffff1673ffffffffffffffffffffffffffffffffffffffff163373ffffffffffffffffffffffffffffffffffffffff1614156107c2576040517f08c379a00000000000000000000000000000000000000000000000000000000081526004016107b990611017565b60405180910390fd5b6003600082815260200190815260200160002060050160008154809291906107e9906112b6565b91905055506001600460003373ffffffffffffffffffffffffffffffffffffffff1673ffffffffffffffffffffffffffffffffffffffff168152602001908152602001600020600083815260200190815260200160002060006101000a81548160ff021916908315150217905550600560003373ffffffffffffffffffffffffffffffffffffffff1673ffffffffffffffffffffffffffffffffffffffff16815260200190815260200160002081908060018154018082558091505060019003906000526020600020016000909190919091505550565b606060008054906101000a900473ffffffffffffffffffffffffffffffffffffffff1673ffffffffffffffffffffffffffffffffffffffff163373ffffffffffffffffffffffffffffffffffffffff16148061097d575060011515600460003373ffffffffffffffffffffffffffffffffffffffff1673ffffffffffffffffffffffffffffffffffffffff168152602001908152602001600020600084815260200190815260200160002060009054906101000a900460ff161515145b6109bc576040517f08c379a00000000000000000000000000000000000000000000000000000000081526004016109b390610f97565b60405180910390fd5b6003600083815260200190815260200160002060000180546109dd90611253565b80601f0160208091040260200160405190810160405280929190818152602001828054610a0990611253565b8015610a565780601f10610a2b57610100808354040283529160200191610a56565b820191906000526020600020905b815481529060010190602001808311610a3957829003601f168201915b50505050509050919050565b6060600560003373ffffffffffffffffffffffffffffffffffffffff1673ffffffffffffffffffffffffffffffffffffffff168152602001908152602001600020805480602002602001604051908101604052809291908181526020018280548015610aed57602002820191906000526020600020905b815481526020019060010190808311610ad9575b5050505050905090565b6000600154905090565b828054610b0d90611253565b90600052602060002090601f016020900481019282610b2f5760008555610b76565b82601f10610b4857805160ff1916838001178555610b76565b82800160010185558215610b76579182015b82811115610b75578251825591602001919060010190610b5a565b5b509050610b839190610b87565b5090565b5b80821115610ba0576000816000905550600101610b88565b5090565b6000610bb7610bb28461110d565b6110e8565b905082815260208101848484011115610bcf57600080fd5b610bda848285611211565b509392505050565b600081519050610bf181611493565b92915050565b600082601f830112610c0857600080fd5b8135610c18848260208601610ba4565b91505092915050565b600081359050610c30816114aa565b92915050565b600060208284031215610c4857600080fd5b6000610c5684828501610be2565b91505092915050565b600080600080600060a08688031215610c7757600080fd5b600086013567ffffffffffffffff811115610c9157600080fd5b610c9d88828901610bf7565b955050602086013567ffffffffffffffff811115610cba57600080fd5b610cc688828901610bf7565b945050604086013567ffffffffffffffff811115610ce357600080fd5b610cef88828901610bf7565b935050606086013567ffffffffffffffff811115610d0c57600080fd5b610d1888828901610bf7565b9250506080610d2988828901610c21565b9150509295509295909350565b600060208284031215610d4857600080fd5b6000610d5684828501610c21565b91505092915050565b6000610d6b8383610efe565b60208301905092915050565b610d80816111db565b82525050565b610d8f81611193565b82525050565b6000610da08261114e565b610daa8185611171565b9350610db58361113e565b8060005b83811015610de6578151610dcd8882610d5f565b9750610dd883611164565b925050600181019050610db9565b5085935050505092915050565b6000610dfe82611159565b610e088185611182565b9350610e18818560208601611220565b610e218161138c565b840191505092915050565b6000610e39602083611182565b9150610e448261139d565b602082019050919050565b6000610e5c600f83611182565b9150610e67826113c6565b602082019050919050565b6000610e7f601283611182565b9150610e8a826113ef565b602082019050919050565b6000610ea2601283611182565b9150610ead82611418565b602082019050919050565b6000610ec5602083611182565b9150610ed082611441565b602082019050919050565b6000610ee8601583611182565b9150610ef38261146a565b602082019050919050565b610f07816111d1565b82525050565b610f16816111d1565b82525050565b6000606082019050610f316000830186610d86565b610f3e6020830185610d77565b610f4b6040830184610f0d565b949350505050565b60006020820190508181036000830152610f6d8184610d95565b905092915050565b60006020820190508181036000830152610f8f8184610df3565b905092915050565b60006020820190508181036000830152610fb081610e2c565b9050919050565b60006020820190508181036000830152610fd081610e4f565b9050919050565b60006020820190508181036000830152610ff081610e72565b9050919050565b6000602082019050818103600083015261101081610e95565b9050919050565b6000602082019050818103600083015261103081610eb8565b9050919050565b6000602082019050818103600083015261105081610edb565b9050919050565b600060208201905061106c6000830184610f0d565b92915050565b600060c0820190506110876000830189610f0d565b81810360208301526110998188610df3565b905081810360408301526110ad8187610df3565b905081810360608301526110c18186610df3565b90506110d06080830185610f0d565b6110dd60a0830184610f0d565b979650505050505050565b60006110f2611103565b90506110fe8282611285565b919050565b6000604051905090565b600067ffffffffffffffff8211156111285761112761135d565b5b6111318261138c565b9050602081019050919050565b6000819050602082019050919050565b600081519050919050565b600081519050919050565b6000602082019050919050565b600082825260208201905092915050565b600082825260208201905092915050565b600061119e826111b1565b9050919050565b60008115159050919050565b600073ffffffffffffffffffffffffffffffffffffffff82169050919050565b6000819050919050565b60006111e6826111ed565b9050919050565b60006111f8826111ff565b9050919050565b600061120a826111b1565b9050919050565b82818337600083830152505050565b60005b8381101561123e578082015181840152602081019050611223565b8381111561124d576000848401525b50505050565b6000600282049050600182168061126b57607f821691505b6020821081141561127f5761127e61132e565b5b50919050565b61128e8261138c565b810181811067ffffffffffffffff821117156112ad576112ac61135d565b5b80604052505050565b60006112c1826111d1565b91507fffffffffffffffffffffffffffffffffffffffffffffffffffffffffffffffff8214156112f4576112f36112ff565b5b600182019050919050565b7f4e487b7100000000000000000000000000000000000000000000000000000000600052601160045260246000fd5b7f4e487b7100000000000000000000000000000000000000000000000000000000600052602260045260246000fd5b7f4e487b7100000000000000000000000000000000000000000000000000000000600052604160045260246000fd5b6000601f19601f8301169050919050565b7f4e6f7420636f6e7472616374206f776e6572206f7220626f6f6b206f776e6572600082015250565b7f5472616e73666572206661696c65640000000000000000000000000000000000600082015250565b7f426f6f6b206e6f7420617661696c61626c650000000000000000000000000000600082015250565b7f4e6f7420636f6e7472616374206f776e65720000000000000000000000000000600082015250565b7f436f6e7472616374206f776e65722063616e206e6f742062757920626f6f6b73600082015250565b7f416c7265616479206f776e732074686520626f6f6b0000000000000000000000600082015250565b61149c816111a5565b81146114a757600080fd5b50565b6114b3816111d1565b81146114be57600080fd5b5056fea264697066735822122018dc095f2de70c875818b4732c32937570616c46f11681c4215fbe9fd875b5f464736f6c63430008040033",
  "devdoc": {
    "kind": "dev",
    "methods": {},
    "version": 1
  },
  "userdoc": {
    "kind": "user",
    "methods": {},
    "version": 1
  },
  "storageLayout": {
    "storage": [
      {
        "astId": 70,
        "contract": "contracts/EbookStore.sol:EbookStore",
        "label": "contractOwner",
        "offset": 0,
        "slot": "0",
        "type": "t_address_payable"
      },
      {
        "astId": 73,
        "contract": "contracts/EbookStore.sol:EbookStore",
        "label": "booksTotal",
        "offset": 0,
        "slot": "1",
        "type": "t_uint256"
      },
      {
        "astId": 76,
        "contract": "contracts/EbookStore.sol:EbookStore",
        "label": "cUsdTokenAddress",
        "offset": 0,
        "slot": "2",
        "type": "t_address"
      },
      {
        "astId": 106,
        "contract": "contracts/EbookStore.sol:EbookStore",
        "label": "books",
        "offset": 0,
        "slot": "3",
        "type": "t_mapping(t_uint256,t_struct(Book)101_storage)"
      },
      {
        "astId": 112,
        "contract": "contracts/EbookStore.sol:EbookStore",
        "label": "userBooks",
        "offset": 0,
        "slot": "4",
        "type": "t_mapping(t_address,t_mapping(t_uint256,t_bool))"
      },
      {
        "astId": 117,
        "contract": "contracts/EbookStore.sol:EbookStore",
        "label": "userBookList",
        "offset": 0,
        "slot": "5",
        "type": "t_mapping(t_address,t_array(t_uint256)dyn_storage)"
      }
    ],
    "types": {
      "t_address": {
        "encoding": "inplace",
        "label": "address",
        "numberOfBytes": "20"
      },
      "t_address_payable": {
        "encoding": "inplace",
        "label": "address payable",
        "numberOfBytes": "20"
      },
      "t_array(t_uint256)dyn_storage": {
        "base": "t_uint256",
        "encoding": "dynamic_array",
        "label": "uint256[]",
        "numberOfBytes": "32"
      },
      "t_bool": {
        "encoding": "inplace",
        "label": "bool",
        "numberOfBytes": "1"
      },
      "t_mapping(t_address,t_array(t_uint256)dyn_storage)": {
        "encoding": "mapping",
        "key": "t_address",
        "label": "mapping(address => uint256[])",
        "numberOfBytes": "32",
        "value": "t_array(t_uint256)dyn_storage"
      },
      "t_mapping(t_address,t_mapping(t_uint256,t_bool))": {
        "encoding": "mapping",
        "key": "t_address",
        "label": "mapping(address => mapping(uint256 => bool))",
        "numberOfBytes": "32",
        "value": "t_mapping(t_uint256,t_bool)"
      },
      "t_mapping(t_uint256,t_bool)": {
        "encoding": "mapping",
        "key": "t_uint256",
        "label": "mapping(uint256 => bool)",
        "numberOfBytes": "32",
        "value": "t_bool"
      },
      "t_mapping(t_uint256,t_struct(Book)101_storage)": {
        "encoding": "mapping",
        "key": "t_uint256",
        "label": "mapping(uint256 => struct EbookStore.Book)",
        "numberOfBytes": "32",
        "value": "t_struct(Book)101_storage"
      },
      "t_string_storage": {
        "encoding": "bytes",
        "label": "string",
        "numberOfBytes": "32"
      },
      "t_struct(Book)101_storage": {
        "encoding": "inplace",
        "label": "struct EbookStore.Book",
        "members": [
          {
            "astId": 90,
            "contract": "contracts/EbookStore.sol:EbookStore",
            "label": "epubUrl",
            "offset": 0,
            "slot": "0",
            "type": "t_string_storage"
          },
          {
            "astId": 92,
            "contract": "contracts/EbookStore.sol:EbookStore",
            "label": "coverUrl",
            "offset": 0,
            "slot": "1",
            "type": "t_string_storage"
          },
          {
            "astId": 94,
            "contract": "contracts/EbookStore.sol:EbookStore",
            "label": "title",
            "offset": 0,
            "slot": "2",
            "type": "t_string_storage"
          },
          {
            "astId": 96,
            "contract": "contracts/EbookStore.sol:EbookStore",
            "label": "author",
            "offset": 0,
            "slot": "3",
            "type": "t_string_storage"
          },
          {
            "astId": 98,
            "contract": "contracts/EbookStore.sol:EbookStore",
            "label": "price",
            "offset": 0,
            "slot": "4",
            "type": "t_uint256"
          },
          {
            "astId": 100,
            "contract": "contracts/EbookStore.sol:EbookStore",
            "label": "sold",
            "offset": 0,
            "slot": "5",
            "type": "t_uint256"
          }
        ],
        "numberOfBytes": "192"
      },
      "t_uint256": {
        "encoding": "inplace",
        "label": "uint256",
        "numberOfBytes": "32"
      }
    }
  }
}